:020000009B293A
:1000060083120313F1014408710203181328F20145
:10001600FE30720203181128F20A0B28F10A06288C
:020026000800D0
:10002800710DF80DF90D7408F8027508031C750FA9
:10003800F902F00DF10D0F30FC00710DF80DF90DFE
:100048007408701C2D28F8027508031C750FF90236
:100058003228F80775080318750FF907F00DF10D28
:10006800FC0B212870183E287408F8077508031837
:08007800750FF90700000800F4
:0E0080008312031334088A003308820008003C
:10008E0083120313430887000811881008140530E3
:08009E00C40003200810080053
:1000A600831203137408003A031D62287508003A88
:1000B600031D6228FF30F0007F30F100BB28831259
:1000C6000313FD01F901F8017108700403190034E6
:1000D60071087506FA00FA1BFD09FB01F51F782861
:1000E600F409F509F40A0319F50AF11F7F28F00946
:1000F600F109F00A0319F10A71087504FA00FA1BEE
:10010600942814207B18A728FD1F0034F009F10954
:10011600F00A0319F10AF809F909F80A0319F90AA4
:100126000034F51FA328F11B9F287108F9007008F9
:10013600F800F101F0018728F101F001F00A00341E
:10014600F109F009FB0A8428F80A0319F90A740868
:100156007802031D872875087902031D8728F9018F
:10016600F801F00A0319F10AF11F87280000FF348D
:0201760008007F
:1001780083120313420887000815881008140530F5
:08018800C40003200810080068
:10019000FA3083120313C40003203830C300472011
:0E01A0000E30C30047200130C3004720080086
:1001AE0083120313FB01FA01F9018030F800F10C00
:1001BE00F00C031CEB287408F90775080318750F6B
:1001CE00FA070318FB0A0310F01FF3287408FA0746
:1001DE0075080318750FFB07FB0CFA0CF90CF80CDD
:1001EE00031CDE287B08F3007A08F2007908F10080
:0601FE007808F000080083
:10020400F030831203138600F0308600F0300605C8
:10021400F1007108B5007108F03A031D0629FE309B
:100224008600F0300605F1007108B5007108F03A57
:1002340003191E29BD014929FD308600F030060549
:10024400F1007108B5007108F03A03192C29013046
:10025400BD004929FB308600F0300605F100710825
:10026400B5007108F03A03193A290230BD00492952
:10027400F7308600F0300605F1007108B50071080A
:10028400F03A031948290330BD00492911293508DA
:10029400E03A031D59293D08F000F00D7010F00DEF
:1002A40070107008203E84000008F0008E29350884
:1002B400D03A031D6A293D08F000F00D7010F00DCE
:1002C40070102030F007700A84000008F0008E29B6
:1002D4003508B03A031D7C293D08F000F00D70107C
:1002E400F00D70102030F007023070078400000811
:1002F400F0008E293508703A031D8E293D08F00060
:10030400F00D7010F00D70102030F00703307007FE
:0A03140084000008F0008E290800A4
:10031E0040208A110A128000840AB30A0319B40A13
:08032E00F003031D8F290800F4
:10033600373083120313A0003830A1003930A200F1
:100346002F30A3003430A4003530A5003630A60087
:100356007830A7003130A8003230A9003330AA0027
:100366002D30AB002030AC003030AD003D30AE005B
:100376002B30AF0083168701081088100811F03063
:1003860086008101C820C830C4000320BB01BC011F
:10039600B901BA0102217008B6007008203A031D9F
:1003A600DA29C820BB01BC01B901BA01BF2A360847
:1003B6003D3A031D472A0D2A30084007BE00410872
:1003C6000318013E3107BF002D2A30084002BE0047
:1003D6003108031C013E4102BF002D2A4008F000EF
:1003E6004108F1003008F4003108F500D720700804
:1003F600BE007108BF002D2A3008F4003108F50050
:100406004008F0004108F10053207008BE00710852
:10041600BF002D2A00303806031D132A0130370687
:100426000319DF2900303806031D1B2A0230370660
:100436000319E82900303806031D232A033037063E
:100446000319F12900303806031D2B2A043037061C
:100456000319FF293D30C200BC2000303806031DB9
:10046600362A01303706031D3C2A30303E02B200E0
:100476003F2A30303E07B2003208C200BC20BB0122
:10048600BC01B901BA01BF2A36082B3A0319582A0A
:100496003608783A0319582A36082F3A0319582A83
:1004A60036082D3A0319582A8A2A792A0130B700C4
:1004B6000030B8003608C200BC20892A0230B700D6
:1004C6000030B8003608C200BC20892A0330B700C5
:1004D6000030B8003608C200BC20892A0430B700B4
:1004E6000030B8003608C200BC20892A36082B3AEC
:1004F6000319592A36082D3A0319612A3608783A1B
:100506000319692A36082F3A0319712ABF2A0030BF
:100516003C06031D902A00303B06031DA52A003029
:100526003A06031D982A00303906031DA52A360807
:10053600C000C1013608C200BC200130BB0000303B
:10054600BC00BF2A00303C06031DAB2A01303B0627
:10055600031DBF2A00303A06031DB32A00303906B0
:10056600031DBF2A3608B000B1013608C200BC2000
:0C0576000130B9000030BA00CD29C02AC5
:02400E004A2F37
:00000001FF
