:060000000A128A11E12F33
:10000E004F34503445345234413454344F345234D6
:10001E0020343D34203400342A342A342A345234E5
:10002E004534533455344C3454342A342A342A3417
:10003E00003445344E345434453452342034323442
:10004E0020344E344F343D342034003445344E3455
:10005E005434453452342034313420344E344F34F9
:10006E003D342034003483120313A00020080319FA
:10007E00412842285628F91F452846285628760931
:10008E00A2007709A3007809A4007909A500A20AA5
:10009E000319A30A0319A40A0319A50A5E287908ED
:1000AE00A5007808A4007708A3007608A2007908B6
:1000BE00780477047604031D652866286F280030BF
:1000CE00F9000030F8000030F7000030F600F32899
:1000DE009630A1007F280130FF007F08A107013074
:1000EE000310A50CA40CA30CA20CFF3E031D772835
:1000FE00FE302505031D842885287228A12801308D
:10010E00FF007F08A1070130A2070030031801305D
:10011E00A307003003180130A40700300318013084
:10012E00A50701300310A50CA40CA30CA20CFF3ED6
:10013E00031D9928FF302505031DA628A72886280C
:10014E00B3280130A1020130FA000310A20DA30D55
:10015E00A40DA50DFA0BAC28A41BB628B728BD28F4
:10016E00023021020318BC28BD28A8282118C02857
:10017E00C128C928FF30A205FF30A3057F30A40592
:10018E00FF30A5050310A10C2108FA00FB01FC01AC
:10019E00FD0118300310FA0DFB0DFC0DFD0DFF3E99
:1001AE00031DD1287A08A2047B08A3047C08A404AA
:1001BE007D08A50420080319E528E628EB28F91F79
:1001CE00E928EA28EB28A5172508F9002408F800E5
:1001DE002308F7002208F6000800831203132D08E7
:1001EE008039B7002D08AE002E07BE00AC1F0029C7
:1001FE00012902293E143E08031906290729172949
:10020E003E0A031D0B290C2914290030AD000030C5
:10021E00AC000030AB000030AA00AC17AD011F29B6
:10022E000030AD000030AC000030AB000030AA0052
:10023E0029088039FF007F08B7062908AE002E076F
:10024E00BF00A81F2B292C292D293F143F08031965
:10025E003129322942293F0A031D362937293F29E0
:10026E000030A9000030A8000030A7000030A60022
:10027E00A817A9014A290030A9000030A8000030B3
:10028E00A7000030A6002908280427042604031D11
:10029E00512952296B290030AD000030AC000030DE
:1002AE00AB000030AA008030AC047F30AD043708BC
:1002BE00FF007F08AD042D08A9002C08A8002B080C
:1002CE00A7002A08A600C22A3E08031D6F2970291E
:1002DE0079290030A9000030A8000030A7000030B6
:1002EE00A600C22A3E08AE00AF012F08B1003F089B
:1002FE002E02B000031CB10330087F3EB800310857
:10030E000318013E003EB9002D08B6002C08B500BA
:10031E002B08B4002A08B3000030AD000030AC004A
:10032E000030AB000030AA000030BD000030BC0031
:10033E000030BB000030BA00BF01EF293F0803199F
:10034E00A929AA29CA290130AE000310B30DB40D94
:10035E00B50DB60DAE0BAC290130AE000310AA0DD3
:10036E00AB0DAC0DAD0DAE0BB529BD1FBF29C02910
:10037E00C1292A140130AE000310BA0DBB0DBC0DFD
:10038E00BD0DAE0BC32929083602031DD829280836
:10039E003502031DD82927083402031DD829260843
:1003AE003302031CDB29DC29EB293D172608B30297
:1003BE002708031C270FB4022808031C280FB502B8
:1003CE002908031C290FB6020130FF007F08BF0762
:1003DE001A303F02031CF429F529A52936083504E5
:1003EE00340433040319FC29FD291C2A3A141C2A4F
:1003FE000130AE000310AA0DAB0DAC0DAD0DAE0B62
:10040E00012ABD1F0B2A0C2A0D2A2A140130AE0018
:10041E000310BA0DBB0DBC0DBD0DAE0B0F2AFF3078
:10042E00B8070318B90AFF30B907AC1F1F2A202AD4
:10043E00FF29BF01BD1F242A252A412AFF303A0574
:10044E00AE00FF303B05AF00FF303C05B0007F3003
:10045E003D05B100310830042F042E040319382A4B
:10046E00392A3C2ABF01BF0A412A2A1C3F2A402AA8
:10047E00412A392A3F080319452A462A772A01308C
:10048E00AA07003003180130AB0700300318013003
:10049E00AC07003003180130AD072D1C572A582A1F
:1004AE00772A2A08AE002B08AF002C08B0002D08C2
:1004BE00B1000130B200310DB10CB00CAF0CAE0C6E
:1004CE00B20B622A3108AD003008AC002F08AB0029
:1004DE002E08AA000130B8070318B90A0030B90770
:1004EE003908803AFF0080307F02031D802AFF30DA
:1004FE003802031C832A842A922AFF3083120313A4
:10050E00B8000030B9000030AD000030AC00003053
:10051E00AB000030AA00831203133908803AFF00A3
:10052E0080307F02031D9D2A013038020318A02A55
:10053E00A12AAE2A83120313B801B9010030AD000F
:10054E000030AC000030AB000030AA00B7018312BF
:10055E0003133808BE003E1CB52AB62AB82AAC17BB
:10056E00BC2A7F30FF007F08AC053E08AE000310AA
:10057E002E0CAD005E290800F030831603138700A1
:10058E008601081388130B3083120313D000263014
:10059E00CF005D30CE00CE0BD22ACF0BD22AD00B9D
:1005AE00D22A83120313D801D9010A128A155024B4
:1005BE000A128A11F32A5808BA3E840000080A1259
:1005CE008A153D230A128A11013083120313D807AC
:1005DE000318D90A0030D907831203135808BA3EFC
:1005EE00840083130008031DFD2AFE2AE22A0A1244
:1005FE008A154D260A128A1183120313D10051084F
:10060E000A128A15A4230A128A117108831203137F
:10061E00D5007008D40001300A128A1522230A125E
:10062E008A1183120313D801D9012E2B58085A3E72
:10063E00840000080A128A153D230A128A1101301D
:10064E0083120313D8070318D90A0030D9075808A4
:10065E005A3E840083130008031D362B372B1D2BA7
:10066E000A128A154D260A128A1183120313D2001A
:10067E0001300A128A1522230A128A1183120313D9
:10068E00D801D9015B2B5808AD3E840000080A1230
:10069E008A153D230A128A11013083120313D807DB
:1006AE000318D90A0030D9075808AD3E84008313C9
:1006BE000008031D632B642B4A2B0A128A154D2644
:1006CE000A128A1183120313D30053080A128A15D1
:1006DE00A4230A128A11710883120313D70070081B
:1006EE00D60001300A128A1522230A128A1182308C
:1006FE000A128A1522230A128A1183120313D801B1
:10070E00D9019A2B5808A03E840000080A128A15B7
:10071E003D230A128A11013083120313D8070318DE
:10072E00D90A0030D9075808A03E84008313000868
:10073E00031DA22BA32B892BD801D901C0300A127D
:10074E008A1522230A128A118312031351080A12E0
:10075E008A153D230A128A118312031352080A12B4
:10076E008A153D230A128A118312031353080A12A3
:10077E008A153D230A128A1120300A128A153D234A
:10078E000A128A113D300A128A153D230A128A1165
:10079E00892C54085607F60055080318550A5707B2
:1007AE00F700F801F71BF8037808F90001300A1278
:1007BE008A113A200A128A11790883120313C30090
:1007CE007808C2007708C1007608C0000A128A15A0
:1007DE0094250A128A11F32A56085402F600570875
:1007EE00031C570A5502F700F801F71BF8037808A7
:1007FE00F90001300A128A113A200A128A11790878
:10080E0083120313C3007808C2007708C10076086C
:10081E00C0000A128A1594250A128A11F32A570863
:10082E00F3005608F2005508F1005408F0000A12C1
:10083E008A1558230A128A117008F6007108F700FB
:10084E000030F71BFF30F800F90001300A128A1150
:10085E003A200A128A11790883120313C30078080A
:10086E00C2007708C1007608C0000A128A159425C6
:10087E000A128A11F32A5608F6005708F7000030BC
:10088E00F71BFF30F800F90001300A128A113A20E6
:10089E000A128A11790883120313A9007808A80096
:1008AE007708A7007608A6005408F6005508F7004A
:1008BE000030F71BFF30F800F90001300A128A11E0
:1008CE003A200A128A11790883120313AD007808B0
:1008DE00AC007708AB007608AA000A128A11F42041
:1008EE000A128A11831203132908C3002808C200B2
:1008FE002708C1002608C0000A128A1594250A127C
:10090E008A11F32A8312031352082A3A0319162C5A
:10091E00013A0319D02B063A0319F32B023A0319A5
:10092E00422CF32A0A128A11002883120313230879
:10093E008039A8002308F9007907AE00A21FA82C61
:10094E00A92CAA2C2E142E080319AE2CAF2CBE2CBB
:10095E002E0A031DB32CB42CBC2C0030A300003087
:10096E00A2000030A1000030A000A217C62C00305B
:10097E00A3000030A2000030A1000030A000270824
:10098E008039FF007F08A8062708F9007907AD0017
:10099E00A61FD22CD32CD42C2D142D080319D82CF1
:1009AE00D92CE82C2D0A031DDD2CDE2CE62C003074
:1009BE00A7000030A6000030A5000030A400A61746
:1009CE00F02C0030A7000030A6000030A50000304B
:1009DE00A4002D080319F42CF52CFA2C2E08031D57
:1009EE00F92CFA2C032D0030A3000030A2000030A9
:1009FE00A1000030A000E02F2008F00026080A1207
:100A0E008A157D230A128A11710883120313B4000A
:100A1E007008B3003308F900FA01FB01FC017C08F1
:100A2E00AC007B08AB007A08AA007908A90034084C
:100A3E00F900FA01FB01FC017C08B2007B08B10051
:100A4E007A08B0007908AF002108F00025080A12D4
:100A5E008A157D230A128A11710883120313B400BA
:100A6E007008B3003308F900FA01FB01FC017908A4
:100A7E00A9077A0803110318013E0319472DAA0787
:100A8E007B0803110318013E03194E2DAB077C089A
:100A9E0003110318013E0319552DAC073408F90054
:100AAE00FA01FB01FC017908AF077A08031103185C
:100ABE00013E0319632DB0077B0803110318013E95
:100ACE0003196A2DB1077C0803110318013E03199F
:100ADE00712DB2072208F00024080A128A157D2310
:100AEE000A128A11710883120313B4007008B3003E
:100AFE003308F900FA01FB01FC017908A9077A080D
:100B0E0003110318013E03198D2DAA077B0803114B
:100B1E000318013E0319942DAB077C08031103182B
:100B2E00013E03199B2DAC073408F900FA01FB01B5
:100B3E00FC017908AF077A0803110318013E031967
:100B4E00A92DB0077B0803110318013E0319B02D20
:100B5E00B1077C0803110318013E0319B72DB20724
:100B6E000830F9000310A90DAA0DAB0DAC0DF90B51
:100B7E00B92D2108F00024080A128A157D230A12C5
:100B8E008A11710883120313B4007008B30033087E
:100B9E00F9003408FA00FB01FC017908A9077A086C
:100BAE0003110318013E0319DD2DAA077B0803115B
:100BBE000318013E0319E42DAB077C08031103183B
:100BCE00013E0319EB2DAC072008F00025080A1290
:100BDE008A157D230A128A11710883120313B40039
:100BEE007008B3003308F9003408FA00FB01FC0169
:100BFE007908A9077A0803110318013E0319082E74
:100C0E00AA077B0803110318013E03190F2EAB0729
:100C1E007C0803110318013E0319162EAC07083089
:100C2E00F9000310A90DAA0DAB0DAC0DF90B182E82
:100C3E002008F00024080A128A157D230A128A1150
:100C4E00710883120313B4007008B3003308F9005F
:100C5E003408FA00FB01FC017908A9077A08031190
:100C6E000318013E03193C2EAA077B080311031833
:100C7E00013E0319432EAB077C0803110318013EF6
:100C8E0003194A2EAC072108F00026080A128A150D
:100C9E007D230A128A11710883120313B40070089F
:100CAE00B3003308F9003408FA00FB01FC0179089F
:100CBE00AF077A0803110318013E0319672EB00718
:100CCE007B0803110318013E03196E2EB1077C0831
:100CDE0003110318013E0319752EB2072208F00006
:100CEE0025080A128A157D230A128A1171088312A9
:100CFE000313B4007008B3003308F9003408FA0087
:100D0E00FB01FC017908AF077A0803110318013EB5
:100D1E000319922EB0077B0803110318013E031925
:100D2E00992EB1077C0803110318013E0319A02E5A
:100D3E00B2072208F00026080A128A157D230A122D
:100D4E008A11710883120313B4007008B3003308BC
:100D5E00F9003408FA00FB01FC0108300310F90D0C
:100D6E00FA0DFB0DFC0DFF3E031DB52E7908AF07E6
:100D7E007A0803110318013E0319C62EB0077B082B
:100D8E0003110318013E0319CD2EB1077C08031180
:100D9E000318013E0319D42EB2072908F9002A08B8
:100DAE00FA002B08FB002C08FC0018300310FC0C7A
:100DBE00FB0CFA0CF90CFF3E031DDD2E7908AF0774
:100DCE007A0803110318013E0319EE2EB0077B08B3
:100DDE0003110318013E0319F52EB1077C08031108
:100DEE000318013E0319FC2EB2070830F900031058
:100DFE00A90DAA0DAB0DAC0DF90BFE2E2E082D076D
:100E0E00F900FA01FA0D7908823EB3007A08031848
:100E1E00013EFF3EB400302F0130F9000310AF0D3C
:100E2E00B00DB10DB20DF90B152FAC1F1F2F202FCA
:100E3E00212F2F140130F9000310A90DAA0DAB0DAF
:100E4E00AC0DF90B232FFF30B3070318B40AFF3094
:100E5E00B407B11F332F342F132FAD01AC1F382F12
:100E6E00392F552FFF302905F900FF302A05FA00DA
:100E7E00FF302B05FB007F302C05FC007C087B042B
:100E8E007A04790403194C2F4D2F502FAD01AD0A62
:100E9E00552F2F1C532F542F552F4D2F2D0803191F
:100EAE00592F5A2F8B2F0130AF0700300318013006
:100EBE00B007003003180130B107003003180130BD
:100ECE00B207321C6B2F6C2F8B2F2F08F9003008B6
:100EDE00FA003108FB003208FC000130FD007C0DE9
:100EEE00FC0CFB0CFA0CF90CFD0B762F7C08B200F7
:100EFE007B08B1007A08B0007908AF000130B30763
:100F0E000318B40A0030B4073408803AFF0080306A
:100F1E007F02031D942FFF303302031C972F982F4F
:100F2E00A32F7F3083120313B2008030B100003044
:100F3E00B0000030AF00D42F831203133408803A70
:100F4E00FF0080307F02031DAE2F013033020318E5
:100F5E00B12FB22FBE2F003083120313B200003018
:100F6E00B1000030B0000030AF00A801D42F8312C2
:100F7E0003133308AE00FF30AF05FF30B0057F30EE
:100F8E00B1050030B2052E1CCD2FCE2FCF2FB117AD
:100F9E002E08F9000310790CB2002808FF007F0814
:100FAE00B2043208A3003108A2003008A1002F08B5
:100FBE00A00008008313C730FD000030FE00133080
:100FCE00FF00A03084000A128A15FE220A128A112E
:100FDE006630FD000030FE000730FF005A308400FE
:100FEE000A128A15FE220A128A1183010A128A1126
:020FFE00C32A04
:1015F4007E088A007F0882000A128A15FA220A12DB
:101604008A158000840A04087D0603190034FF0A41
:101614000319FE0AFE2AF200F101721C122B132B8D
:10162400172B7008FF007F08F1070310F00D03105B
:10163400F20C7208031D1F2B202B0F2B71080800BE
:10164400F200720883120313860008138817073008
:10165400F1007D30F000F00B2D2BF10B2D2B8312BC
:10166400031388130730F1007D30F000F00B382BA2
:10167400F10B382B0800F200720883120313860062
:10168400081788170730F1007D30F000F00B482B65
:10169400F10B482B8312031388130730F1007D30BC
:1016A400F000F00B532BF10B532B0800F401F50160
:1016B400701C5D2B5E2B642B7208F4070318F50A6B
:1016C4007308F50701300310F20DF30DFF3E031DFF
:1016D400652B01300310F10CF00CFF3E031D6C2B45
:1016E40070087104031D772B782B5A2B7508F100B1
:1016F4007408F0000800F800F401F5017008F20025
:10170400F3017208F6007308F700781C8A2B8B2B00
:10171400912B7608F4070318F50A7708F5070130CA
:101724000310F60DF70DFF3E031D922B0310F80C6A
:101734007808031D9E2B9F2B872B7508F1007408D6
:10174400F0000800F200D62BF001F101F62B013075
:10175400F0000030F100F62B0230F0000030F10010
:10176400F62B0330F0000030F100F62B0430F000CB
:101774000030F100F62B0530F0000030F100F62BBC
:101784000630F0000030F100F62B0730F000003096
:10179400F100F62B0830F0000030F100F62B093090
:1017A400F0000030F100F62B7208303A0319A62B32
:1017B400013A0319A92B033A0319AE2B013A031971
:1017C400B32B073A0319B82B013A0319BD2B033A7B
:1017D4000319C22B013A0319C72B0F3A0319CC2B57
:1017E400013A0319D12BA62B0800F501F31FFB2B9B
:1017F400FC2B032CF209F309F20A0319F30AF5018D
:10180400F50AF11F062C072C0C2CF009F109F00A3B
:101814000319F10A700871040319112C122C412CBC
:10182400F401F40A202C01300310F00DF10DFF3EF9
:10183400031D162C0130FF007F08F407F11F232C31
:10184400242C152C71087302031D2A2C70087202B3
:10185400031C2D2C2E2C342C7008F2027108031C4E
:10186400F303F30201300310F10CF00CFF3E031DEF
:10187400352C0130F402031D402C412C242C750816
:101884000319452C462C4B2CF209F309F20A0319CF
:10189400F30A7308F1007208F00008000B30F50039
:1018A4002630F4005D30F300F30B562CF40B562C69
:1018B400F50B562C5D2C30300A128A1522230A129D
:1018C4008A150B30F5002630F4005D30F300F30B7D
:1018D400692CF40B692CF50B692C702C30300A122E
:1018E4008A1522230A128A150B30F5002630F400DB
:1018F4005D30F300F30B7C2CF40B7C2CF50B7C2C6F
:10190400832C30300A128A1522230A128A150B30CE
:10191400F5002630F4005D30F300F30B8F2CF40B4C
:101924008F2CF50B8F2C962C38300A128A15222313
:101934000A128A150F300A128A1522230A128A15EE
:1019440001300A128A1522230A128A1506300A1255
:101954008A1522230A128A1580300A128A15222334
:101964000A128A150800F501F11FB92CBA2CC12CF2
:10197400F009F109F00A0319F10AF501F50AF31F58
:10198400C42CC52CCE2CF209F309F20A0319F30A6C
:101994000130FF007F08F506F601F70170087104B5
:1019A4000319D52CD62C0D2DF401F40AE42C0130A6
:1019B4000310F00DF10DFF3E031DDA2C0130FF0082
:1019C4007F08F407F11FE72CE82CD92C0130031011
:1019D400F60DF70DFF3E031DE92C71087302031D7C
:1019E400F52C70087202031CF82CF92C002D7008D9
:1019F400F2027108031CF303F3027614013003109E
:101A0400F10CF00CFF3E031D012D0130F402031D07
:101A14000C2D0D2DE82C75080319112D122D172DE1
:101A2400F609F709F60A0319F70A7708F1007608A8
:101A3400F0000800031083120313370D380DBE00A5
:101A44003E08031D262D272D302D0030B800003010
:101A5400B7000030B6000030B500932D3508B9004A
:101A64003608BA003708BB003808BC001F30031022
:101A7400BC0CBB0CBA0CB90CFF3E031D392D390844
:101A8400BD00B717FF30B505FF30B605FF30B70509
:101A94000030B8059630BE02BE1F512D522D6C2D5C
:101AA4003E08803A973E0318582D592D5A2D272D5C
:101AB40001300310B80CB70CB60CB50CFF3E031D77
:101AC4005B2D0130FF007F08BE07031D6A2D6B2DBF
:101AD4005A2D832D20303E02031C712D722D7E2D34
:101AE400272D0130B9000310B50DB60DB70DB80D93
:101AF400B90B752D0130BE023E08031D822D832DC6
:101B0400732D3D080319872D882D932DB509B6092A
:101B1400B709B809B50A0319B60A0319B70A0319AC
:101B2400B80A080083120313CB01CA014308A700B3
:101B34004208A6004108A5004008A4004130A300C3
:101B44002030A2000030A1000030A0000A128A1147
:101B54009C240A128A15831203132308B80022084E
:101B6400B7002108B6002008B5000A128A151C2502
:101B74000A128A15831203133608C8003508C700F1
:101B84004308B8004208B7004108B6004008B50051
:101B94000A128A151C250A128A15831203133608A1
:101BA400CD003508CC00CD1FD82DD92DE42DCC097E
:101BB400CD09CC0A0319CD0A2D300A128A153D230A
:101BC4000A128A150A30F0000030F1008312031360
:101BD4004D08F3004C08F2000A128A15B5240A12C3
:101BE4008A15700883120313CB004B080319FB2DCD
:101BF400FC2D032E4B08303E0A128A153D230A128F
:101C04008A15F630F000831203134B080A128A1562
:101C14000D230A128A15831203134C07C9004908BD
:101C2400303E0A128A153D230A128A152E300A12F2
:101C34008A153D230A128A150A30F0000030F1009B
:101C4400831203134808F3004708F2000A128A15A6
:101C5400F7230A128A157008303E83120313CA0050
:101C64004A080A128A153D230A128A154D30831236
:101C74000313C6001930C5004F30C400C40B402EF6
:101C8400C50B402EC60B402E01300A128A152223A2
:101C94000A128A1508007330F600F82F8312031312
:101CA4000710871407158715071E592E5A2E732EF1
:101CB40007185D2E5E2E732E37300A128A153D23C7
:101CC4000A128A150D30F500AF30F400B630F30077
:101CD400F30B6A2EF40B6A2EF50B6A2E00003730D4
:101CE400FF2F871E762E772E902E07187A2E7B2EA6
:101CF400902E38300A128A153D230A128A150D30A7
:101D0400F500AF30F400B630F300F30B872EF40B7C
:101D1400872EF50B872E00003830FF2F071F932ED8
:101D2400942EAD2E0718972E982EAD2E39300A1208
:101D34008A153D230A128A150D30F500AF30F400E0
:101D4400B630F300F30BA42EF40BA42EF50BA42E43
:101D540000003930FF2F871FB02EB12ECA2E07186E
:101D6400B42EB52ECA2E2F300A128A153D230A121C
:101D74008A150D30F500AF30F400B630F300F30BE4
:101D8400C12EF40BC12EF50BC12E00002F30FF2FF6
:101D94000714871007158715071ED12ED22EEB2E98
:101DA4008718D52ED62EEB2E34300A128A153D23F1
:101DB4000A128A150D30F500AF30F400B630F30086
:101DC400F30BE22EF40BE22EF50BE22E000034307E
:101DD400FF2F871EEE2EEF2E082F8718F22EF32EDC
:101DE400082F35300A128A153D230A128A150D3040
:101DF400F500AF30F400B630F300F30BFF2EF40B14
:101E0400FF2EF50BFF2E00003530FF2F071F0B2F81
:101E14000C2F252F87180F2F102F252F36300A123D
:101E24008A153D230A128A150D30F500AF30F400EF
:101E3400B630F300F30B1C2FF40B1C2FF50B1C2FE7
:101E440000003630FF2F871F282F292F422F871895
:101E54002C2F2D2F422F2A300A128A153D230A12C5
:101E64008A150D30F500AF30F400B630F300F30BF3
:101E7400392FF40B392FF50B392F00002A30FF2F9F
:101E84000714871407118715071E492F4A2F632F3C
:101E940007194D2F4E2F632F31300A128A153D2317
:101EA4000A128A150D30F500AF30F400B630F30095
:101EB400F30B5A2FF40B5A2FF50B5A2F0000313025
:101EC400FF2F871E662F672F802F07196A2F6B2F0E
:101ED400802F32300A128A153D230A128A150D30DA
:101EE400F500AF30F400B630F300F30B772FF40BAA
:101EF400772FF50B772F00003230FF2F071F832F2A
:101F0400842F9D2F0719872F882F9D2F33300A1276
:101F14008A153D230A128A150D30F500AF30F400FE
:101F2400B630F300F30B942FF40B942FF50B942F8E
:101F340000003330FF2F871FA02FA12FBA2F0719BE
:101F4400A42FA52FBA2F2D300A128A153D230A1269
:101F54008A150D30F500AF30F400B630F300F30B02
:101F6400B12FF40BB12FF50BB12F00002D30FF2F43
:101F74000714871407158711871EC12FC22FDB2F63
:101F84008719C52FC62FDB2F30300A128A153D233F
:101F94000A128A150D30F500AF30F400B630F300A4
:101FA400F30BD22FF40BD22FF50BD22F00003030CD
:101FB400FF2F871FDE2FDF2FF82F8719E22FE32F44
:101FC400F82F2B300A128A153D230A128A150D3078
:101FD400F500AF30F400B630F300F30BEF2FF40B41
:101FE400EF2FF50BEF2F00002B30FF2F613076061B
:0C1FF400031DFD2FFE2F502E00300800B2
:00000001FF
